{
  "_format": "hh-sol-artifact-1",
  "contractName": "Vendor",
  "sourceName": "contracts/Vendor.sol",
  "abi": [
    {
      "inputs": [
        {
          "internalType": "address",
          "name": "_plyTokenAddress",
          "type": "address"
        }
      ],
      "stateMutability": "payable",
      "type": "constructor"
    },
    {
      "anonymous": false,
      "inputs": [
        {
          "indexed": false,
          "internalType": "address",
          "name": "buyer",
          "type": "address"
        },
        {
          "indexed": false,
          "internalType": "uint256",
          "name": "amountOfETH",
          "type": "uint256"
        },
        {
          "indexed": false,
          "internalType": "uint256",
          "name": "amountOfTokens",
          "type": "uint256"
        }
      ],
      "name": "BuyTokens",
      "type": "event"
    },
    {
      "anonymous": false,
      "inputs": [
        {
          "indexed": true,
          "internalType": "address",
          "name": "previousOwner",
          "type": "address"
        },
        {
          "indexed": true,
          "internalType": "address",
          "name": "newOwner",
          "type": "address"
        }
      ],
      "name": "OwnershipTransferred",
      "type": "event"
    },
    {
      "anonymous": false,
      "inputs": [
        {
          "indexed": false,
          "internalType": "address",
          "name": "",
          "type": "address"
        },
        {
          "indexed": false,
          "internalType": "uint256",
          "name": "",
          "type": "uint256"
        }
      ],
      "name": "Received",
      "type": "event"
    },
    {
      "anonymous": false,
      "inputs": [
        {
          "indexed": false,
          "internalType": "address",
          "name": "seller",
          "type": "address"
        },
        {
          "indexed": false,
          "internalType": "uint256",
          "name": "amountOfTokens",
          "type": "uint256"
        },
        {
          "indexed": false,
          "internalType": "uint256",
          "name": "amountOfETH",
          "type": "uint256"
        }
      ],
      "name": "SellTokens",
      "type": "event"
    },
    {
      "anonymous": false,
      "inputs": [
        {
          "components": [
            {
              "internalType": "bool",
              "name": "result",
              "type": "bool"
            },
            {
              "internalType": "uint256[3]",
              "name": "results",
              "type": "uint256[3]"
            }
          ],
          "indexed": false,
          "internalType": "struct Vendor.Game",
          "name": "",
          "type": "tuple"
        }
      ],
      "name": "Spin",
      "type": "event"
    },
    {
      "stateMutability": "payable",
      "type": "fallback"
    },
    {
      "inputs": [],
      "name": "buyTokens",
      "outputs": [
        {
          "internalType": "uint256",
          "name": "tokenAmount",
          "type": "uint256"
        }
      ],
      "stateMutability": "payable",
      "type": "function"
    },
    {
      "inputs": [],
      "name": "getBalanceETH",
      "outputs": [
        {
          "internalType": "uint256",
          "name": "",
          "type": "uint256"
        }
      ],
      "stateMutability": "view",
      "type": "function"
    },
    {
      "inputs": [],
      "name": "getBalanceToken",
      "outputs": [
        {
          "internalType": "uint256",
          "name": "",
          "type": "uint256"
        }
      ],
      "stateMutability": "view",
      "type": "function"
    },
    {
      "inputs": [],
      "name": "getJackpotAmount",
      "outputs": [
        {
          "internalType": "uint256",
          "name": "",
          "type": "uint256"
        }
      ],
      "stateMutability": "view",
      "type": "function"
    },
    {
      "inputs": [],
      "name": "getUserGameResults",
      "outputs": [
        {
          "components": [
            {
              "internalType": "bool",
              "name": "result",
              "type": "bool"
            },
            {
              "internalType": "uint256[3]",
              "name": "results",
              "type": "uint256[3]"
            }
          ],
          "internalType": "struct Vendor.Game[]",
          "name": "",
          "type": "tuple[]"
        }
      ],
      "stateMutability": "view",
      "type": "function"
    },
    {
      "inputs": [],
      "name": "minEthBal",
      "outputs": [
        {
          "internalType": "uint256",
          "name": "",
          "type": "uint256"
        }
      ],
      "stateMutability": "view",
      "type": "function"
    },
    {
      "inputs": [],
      "name": "owner",
      "outputs": [
        {
          "internalType": "address",
          "name": "",
          "type": "address"
        }
      ],
      "stateMutability": "view",
      "type": "function"
    },
    {
      "inputs": [],
      "name": "renounceOwnership",
      "outputs": [],
      "stateMutability": "nonpayable",
      "type": "function"
    },
    {
      "inputs": [
        {
          "internalType": "uint256",
          "name": "amountOfTokens",
          "type": "uint256"
        }
      ],
      "name": "spin",
      "outputs": [],
      "stateMutability": "nonpayable",
      "type": "function"
    },
    {
      "inputs": [],
      "name": "tokensPerEth",
      "outputs": [
        {
          "internalType": "uint256",
          "name": "",
          "type": "uint256"
        }
      ],
      "stateMutability": "view",
      "type": "function"
    },
    {
      "inputs": [
        {
          "internalType": "address",
          "name": "newOwner",
          "type": "address"
        }
      ],
      "name": "transferOwnership",
      "outputs": [],
      "stateMutability": "nonpayable",
      "type": "function"
    }
  ],
  "bytecode": "0x60806040526000600155606460045560405162001f1038038062001f1083398181016040528101906200003391906200017e565b62000053620000476200009b60201b60201c565b620000a360201b60201c565b80600360006101000a81548173ffffffffffffffffffffffffffffffffffffffff021916908373ffffffffffffffffffffffffffffffffffffffff16021790555050620001f8565b600033905090565b60008060009054906101000a900473ffffffffffffffffffffffffffffffffffffffff169050816000806101000a81548173ffffffffffffffffffffffffffffffffffffffff021916908373ffffffffffffffffffffffffffffffffffffffff1602179055508173ffffffffffffffffffffffffffffffffffffffff168173ffffffffffffffffffffffffffffffffffffffff167f8be0079c531659141344cd1fd0a4f28419497f9722a3daafe3b4186f6b6457e060405160405180910390a35050565b6000815190506200017881620001de565b92915050565b6000602082840312156200019157600080fd5b6000620001a18482850162000167565b91505092915050565b6000620001b782620001be565b9050919050565b600073ffffffffffffffffffffffffffffffffffffffff82169050919050565b620001e981620001aa565b8114620001f557600080fd5b50565b611d0880620002086000396000f3fe6080604052600436106100a05760003560e01c8063a5b6ea8f11610064578063a5b6ea8f1461019f578063acd1f254146101c8578063cbdd69b5146101f3578063d0febe4c1461021e578063ed8b65561461023c578063f2fde38b14610267576100a1565b80631425d2fa146100dc5780636719c73d14610107578063715018a6146101325780638da5cb5b14610149578063a40fe87d14610174576100a1565b5b7f88a5966d370b9919b20f3e2c13ff65706f196a4e32cc2c12bf57088f8852587433346040516100d29291906115ed565b60405180910390a1005b3480156100e857600080fd5b506100f1610290565b6040516100fe91906117aa565b60405180910390f35b34801561011357600080fd5b5061011c610342565b604051610129919061164d565b60405180910390f35b34801561013e57600080fd5b5061014761043e565b005b34801561015557600080fd5b5061015e6104c6565b60405161016b9190611572565b60405180910390f35b34801561018057600080fd5b506101896104ef565b60405161019691906117aa565b60405180910390f35b3480156101ab57600080fd5b506101c660048036038101906101c191906111d0565b6104fa565b005b3480156101d457600080fd5b506101dd610997565b6040516101ea91906117aa565b60405180910390f35b3480156101ff57600080fd5b5061020861099f565b60405161021591906117aa565b60405180910390f35b6102266109a5565b60405161023391906117aa565b60405180910390f35b34801561024857600080fd5b50610251610c24565b60405161025e91906117aa565b60405180910390f35b34801561027357600080fd5b5061028e6004803603810190610289919061117e565b610c65565b005b6000600360009054906101000a900473ffffffffffffffffffffffffffffffffffffffff1673ffffffffffffffffffffffffffffffffffffffff166370a08231306040518263ffffffff1660e01b81526004016102ed9190611572565b60206040518083038186803b15801561030557600080fd5b505afa158015610319573d6000803e3d6000fd5b505050506040513d601f19601f8201168201806040525081019061033d91906111f9565b905090565b6060600260003373ffffffffffffffffffffffffffffffffffffffff1673ffffffffffffffffffffffffffffffffffffffff168152602001908152602001600020805480602002602001604051908101604052809291908181526020016000905b8282101561043557838290600052602060002090600402016040518060400160405290816000820160009054906101000a900460ff161515151581526020016001820160038060200260405190810160405280929190826003801561041d576020028201915b815481526020019060010190808311610409575b505050505081525050815260200190600101906103a3565b50505050905090565b610446610d5d565b73ffffffffffffffffffffffffffffffffffffffff166104646104c6565b73ffffffffffffffffffffffffffffffffffffffff16146104ba576040517f08c379a00000000000000000000000000000000000000000000000000000000081526004016104b19061172f565b60405180910390fd5b6104c46000610d65565b565b60008060009054906101000a900473ffffffffffffffffffffffffffffffffffffffff16905090565b662386f26fc1000081565b662386f26fc1000061050a610997565b1161054a576040517f08c379a0000000000000000000000000000000000000000000000000000000008152600401610541906116af565b60405180910390fd5b6000600360009054906101000a900473ffffffffffffffffffffffffffffffffffffffff1673ffffffffffffffffffffffffffffffffffffffff166370a08231336040518263ffffffff1660e01b81526004016105a79190611572565b60206040518083038186803b1580156105bf57600080fd5b505afa1580156105d3573d6000803e3d6000fd5b505050506040513d601f19601f820116820180604052508101906105f791906111f9565b90508181101561063c576040517f08c379a00000000000000000000000000000000000000000000000000000000081526004016106339061174f565b60405180910390fd5b6000600360009054906101000a900473ffffffffffffffffffffffffffffffffffffffff1673ffffffffffffffffffffffffffffffffffffffff1663dd62ed3e33306040518363ffffffff1660e01b815260040161069b92919061158d565b60206040518083038186803b1580156106b357600080fd5b505afa1580156106c7573d6000803e3d6000fd5b505050506040513d601f19601f820116820180604052508101906106eb91906111f9565b905082811015610730576040517f08c379a0000000000000000000000000000000000000000000000000000000008152600401610727906116cf565b60405180910390fd5b6000600360009054906101000a900473ffffffffffffffffffffffffffffffffffffffff1673ffffffffffffffffffffffffffffffffffffffff166323b872dd3330876040518463ffffffff1660e01b8152600401610791939291906115b6565b602060405180830381600087803b1580156107ab57600080fd5b505af11580156107bf573d6000803e3d6000fd5b505050506040513d601f19601f820116820180604052508101906107e391906111a7565b905080610825576040517f08c379a000000000000000000000000000000000000000000000000000000000815260040161081c9061168f565b60405180910390fd5b600061082f610e29565b9050600061083c82610f8d565b905060006040518060400160405280831515815260200184815250905081156108b4576000610869610c24565b90503373ffffffffffffffffffffffffffffffffffffffff166108fc829081150290604051600060405180830381858888f193505050501580156108b1573d6000803e3d6000fd5b50505b600260003373ffffffffffffffffffffffffffffffffffffffff1673ffffffffffffffffffffffffffffffffffffffff16815260200190815260200160002081908060018154018082558091505060019003906000526020600020906004020160009091909190915060008201518160000160006101000a81548160ff0219169083151502179055506020820151816001019060036109549291906110ab565b5050507fb369dbada696e78e379e4f50b5691a7933398bdd581c6e5b86c55f2b2c38d68a81604051610986919061178f565b60405180910390a150505050505050565b600047905090565b60045481565b60008034116109e9576040517f08c379a00000000000000000000000000000000000000000000000000000000081526004016109e0906116ef565b60405180910390fd5b6000600454346109f991906118c3565b90506000600360009054906101000a900473ffffffffffffffffffffffffffffffffffffffff1673ffffffffffffffffffffffffffffffffffffffff166370a08231306040518263ffffffff1660e01b8152600401610a589190611572565b60206040518083038186803b158015610a7057600080fd5b505afa158015610a84573d6000803e3d6000fd5b505050506040513d601f19601f82011682018060405250810190610aa891906111f9565b905081811015610aed576040517f08c379a0000000000000000000000000000000000000000000000000000000008152600401610ae49061176f565b60405180910390fd5b6000600360009054906101000a900473ffffffffffffffffffffffffffffffffffffffff1673ffffffffffffffffffffffffffffffffffffffff1663a9059cbb33856040518363ffffffff1660e01b8152600401610b4c9291906115ed565b602060405180830381600087803b158015610b6657600080fd5b505af1158015610b7a573d6000803e3d6000fd5b505050506040513d601f19601f82011682018060405250810190610b9e91906111a7565b905080610be0576040517f08c379a0000000000000000000000000000000000000000000000000000000008152600401610bd79061170f565b60405180910390fd5b7f0a37b72bb67eee30e09084cf386f8a17817c57f620c3ab95fb25d6a20356ec77333485604051610c1393929190611616565b60405180910390a182935050505090565b6000662386f26fc10000610c36610997565b1115610c5d57662386f26fc10000610c4c610997565b610c56919061191d565b9050610c62565b600090505b90565b610c6d610d5d565b73ffffffffffffffffffffffffffffffffffffffff16610c8b6104c6565b73ffffffffffffffffffffffffffffffffffffffff1614610ce1576040517f08c379a0000000000000000000000000000000000000000000000000000000008152600401610cd89061172f565b60405180910390fd5b600073ffffffffffffffffffffffffffffffffffffffff168173ffffffffffffffffffffffffffffffffffffffff161415610d51576040517f08c379a0000000000000000000000000000000000000000000000000000000008152600401610d489061166f565b60405180910390fd5b610d5a81610d65565b50565b600033905090565b60008060009054906101000a900473ffffffffffffffffffffffffffffffffffffffff169050816000806101000a81548173ffffffffffffffffffffffffffffffffffffffff021916908373ffffffffffffffffffffffffffffffffffffffff1602179055508173ffffffffffffffffffffffffffffffffffffffff168173ffffffffffffffffffffffffffffffffffffffff167f8be0079c531659141344cd1fd0a4f28419497f9722a3daafe3b4186f6b6457e060405160405180910390a35050565b610e316110eb565b6000434233604051602001610e469190611521565b6040516020818303038152906040528051906020012060001c610e699190611892565b454241604051602001610e7c919061153c565b6040516020818303038152906040528051906020012060001c610e9f9190611892565b6001544442610eae919061183c565b610eb8919061183c565b610ec2919061183c565b610ecc919061183c565b610ed6919061183c565b610ee0919061183c565b604051602001610ef09190611557565b6040516020818303038152906040528051906020012060001c905060016000815480929190610f1e906119ab565b91905055506000600a608083610f349190611a34565b610f3e9190611a34565b90506000600a61010084610f529190611a34565b610f5c9190611a34565b90506040518060600160405280600a85610f769190611a34565b815260200183815260200182815250935050505090565b600081600160038110610fc9577f4e487b7100000000000000000000000000000000000000000000000000000000600052603260045260246000fd5b602002015182600060038110611008577f4e487b7100000000000000000000000000000000000000000000000000000000600052603260045260246000fd5b602002015114156110a1578160026003811061104d577f4e487b7100000000000000000000000000000000000000000000000000000000600052603260045260246000fd5b60200201518260006003811061108c577f4e487b7100000000000000000000000000000000000000000000000000000000600052603260045260246000fd5b602002015114156110a057600190506110a6565b5b600090505b919050565b82600381019282156110da579160200282015b828111156110d95782518255916020019190600101906110be565b5b5090506110e7919061110d565b5090565b6040518060600160405280600390602082028036833780820191505090505090565b5b8082111561112657600081600090555060010161110e565b5090565b60008135905061113981611c8d565b92915050565b60008151905061114e81611ca4565b92915050565b60008135905061116381611cbb565b92915050565b60008151905061117881611cbb565b92915050565b60006020828403121561119057600080fd5b600061119e8482850161112a565b91505092915050565b6000602082840312156111b957600080fd5b60006111c78482850161113f565b91505092915050565b6000602082840312156111e257600080fd5b60006111f084828501611154565b91505092915050565b60006020828403121561120b57600080fd5b600061121984828501611169565b91505092915050565b600061122e838361148e565b60808301905092915050565b600061124683836114ec565b60208301905092915050565b61126361125e82611963565b611a06565b82525050565b61127281611951565b82525050565b61128961128482611951565b6119f4565b82525050565b600061129a826117df565b6112a4818561180f565b93506112af836117c5565b8060005b838110156112e05781516112c78882611222565b97506112d2836117f5565b9250506001810190506112b3565b5085935050505092915050565b6112f6816117ea565b6113008184611820565b925061130b826117d5565b8060005b8381101561133c578151611323878261123a565b965061132e83611802565b92505060018101905061130f565b505050505050565b61134d81611975565b82525050565b600061136060268361182b565b915061136b82611ad0565b604082019050919050565b600061138360198361182b565b915061138e82611b1f565b602082019050919050565b60006113a660178361182b565b91506113b182611b48565b602082019050919050565b60006113c960198361182b565b91506113d482611b71565b602082019050919050565b60006113ec60288361182b565b91506113f782611b9a565b604082019050919050565b600061140f60158361182b565b915061141a82611be9565b602082019050919050565b600061143260208361182b565b915061143d82611c12565b602082019050919050565b6000611455601c8361182b565b915061146082611c3b565b602082019050919050565b600061147860118361182b565b915061148382611c64565b602082019050919050565b6080820160008201516114a46000850182611344565b5060208201516114b760208501826112ed565b50505050565b6080820160008201516114d36000850182611344565b5060208201516114e660208501826112ed565b50505050565b6114f5816119a1565b82525050565b611504816119a1565b82525050565b61151b611516826119a1565b611a2a565b82525050565b600061152d8284611278565b60148201915081905092915050565b60006115488284611252565b60148201915081905092915050565b6000611563828461150a565b60208201915081905092915050565b60006020820190506115876000830184611269565b92915050565b60006040820190506115a26000830185611269565b6115af6020830184611269565b9392505050565b60006060820190506115cb6000830186611269565b6115d86020830185611269565b6115e560408301846114fb565b949350505050565b60006040820190506116026000830185611269565b61160f60208301846114fb565b9392505050565b600060608201905061162b6000830186611269565b61163860208301856114fb565b61164560408301846114fb565b949350505050565b60006020820190508181036000830152611667818461128f565b905092915050565b6000602082019050818103600083015261168881611353565b9050919050565b600060208201905081810360008301526116a881611376565b9050919050565b600060208201905081810360008301526116c881611399565b9050919050565b600060208201905081810360008301526116e8816113bc565b9050919050565b60006020820190508181036000830152611708816113df565b9050919050565b6000602082019050818103600083015261172881611402565b9050919050565b6000602082019050818103600083015261174881611425565b9050919050565b6000602082019050818103600083015261176881611448565b9050919050565b600060208201905081810360008301526117888161146b565b9050919050565b60006080820190506117a460008301846114bd565b92915050565b60006020820190506117bf60008301846114fb565b92915050565b6000819050602082019050919050565b6000819050919050565b600081519050919050565b600060039050919050565b6000602082019050919050565b6000602082019050919050565b600082825260208201905092915050565b600081905092915050565b600082825260208201905092915050565b6000611847826119a1565b9150611852836119a1565b9250827fffffffffffffffffffffffffffffffffffffffffffffffffffffffffffffffff0382111561188757611886611a65565b5b828201905092915050565b600061189d826119a1565b91506118a8836119a1565b9250826118b8576118b7611a94565b5b828204905092915050565b60006118ce826119a1565b91506118d9836119a1565b9250817fffffffffffffffffffffffffffffffffffffffffffffffffffffffffffffffff048311821515161561191257611911611a65565b5b828202905092915050565b6000611928826119a1565b9150611933836119a1565b92508282101561194657611945611a65565b5b828203905092915050565b600061195c82611981565b9050919050565b600061196e82611981565b9050919050565b60008115159050919050565b600073ffffffffffffffffffffffffffffffffffffffff82169050919050565b6000819050919050565b60006119b6826119a1565b91507fffffffffffffffffffffffffffffffffffffffffffffffffffffffffffffffff8214156119e9576119e8611a65565b5b600182019050919050565b60006119ff82611a18565b9050919050565b6000611a1182611a18565b9050919050565b6000611a2382611ac3565b9050919050565b6000819050919050565b6000611a3f826119a1565b9150611a4a836119a1565b925082611a5a57611a59611a94565b5b828206905092915050565b7f4e487b7100000000000000000000000000000000000000000000000000000000600052601160045260246000fd5b7f4e487b7100000000000000000000000000000000000000000000000000000000600052601260045260246000fd5b60008160601b9050919050565b7f4f776e61626c653a206e6577206f776e657220697320746865207a65726f206160008201527f6464726573730000000000000000000000000000000000000000000000000000602082015250565b7f436f756c64206e6f74205472616e7366657220746f6b656e7300000000000000600082015250565b7f54686572652773206e6f7468696e6720746f2077696e21000000000000000000600082015250565b7f436865636b2074686520746f6b656e20616c6c6f77616e636500000000000000600082015250565b7f53656e64206174206c65617374202e30312045544820746f2062757920736f6d60008201527f6520746f6b656e73000000000000000000000000000000000000000000000000602082015250565b7f436f756c64206e6f742073656e6420746f6b656e730000000000000000000000600082015250565b7f4f776e61626c653a2063616c6c6572206973206e6f7420746865206f776e6572600082015250565b7f596f7520446f6e2774204861766520456e6f75676820546f6b656e7300000000600082015250565b7f52616e206f7574206f6620746f6b656e73000000000000000000000000000000600082015250565b611c9681611951565b8114611ca157600080fd5b50565b611cad81611975565b8114611cb857600080fd5b50565b611cc4816119a1565b8114611ccf57600080fd5b5056fea26469706673582212203af500ce9f8e8a1cf564429e4007f1c24d1f66f1614dacbe81413ed35768b4b464736f6c63430008040033",
  "linkReferences": {},
  "deployedLinkReferences": {}
}