{
  "_format": "hh-sol-artifact-1",
  "contractName": "Vendor",
  "sourceName": "contracts/Vendor.sol",
  "abi": [
    {
      "inputs": [
        {
          "internalType": "address",
          "name": "_plyTokenAddress",
          "type": "address"
        }
      ],
      "stateMutability": "payable",
      "type": "constructor"
    },
    {
      "anonymous": false,
      "inputs": [
        {
          "indexed": false,
          "internalType": "address",
          "name": "buyer",
          "type": "address"
        },
        {
          "indexed": false,
          "internalType": "uint256",
          "name": "amountOfETH",
          "type": "uint256"
        },
        {
          "indexed": false,
          "internalType": "uint256",
          "name": "amountOfTokens",
          "type": "uint256"
        }
      ],
      "name": "BuyTokens",
      "type": "event"
    },
    {
      "anonymous": false,
      "inputs": [
        {
          "indexed": true,
          "internalType": "address",
          "name": "previousOwner",
          "type": "address"
        },
        {
          "indexed": true,
          "internalType": "address",
          "name": "newOwner",
          "type": "address"
        }
      ],
      "name": "OwnershipTransferred",
      "type": "event"
    },
    {
      "anonymous": false,
      "inputs": [
        {
          "indexed": false,
          "internalType": "address",
          "name": "",
          "type": "address"
        },
        {
          "indexed": false,
          "internalType": "uint256",
          "name": "",
          "type": "uint256"
        }
      ],
      "name": "Received",
      "type": "event"
    },
    {
      "anonymous": false,
      "inputs": [
        {
          "indexed": false,
          "internalType": "address",
          "name": "seller",
          "type": "address"
        },
        {
          "indexed": false,
          "internalType": "uint256",
          "name": "amountOfTokens",
          "type": "uint256"
        },
        {
          "indexed": false,
          "internalType": "uint256",
          "name": "amountOfETH",
          "type": "uint256"
        }
      ],
      "name": "SellTokens",
      "type": "event"
    },
    {
      "anonymous": false,
      "inputs": [
        {
          "components": [
            {
              "internalType": "bool",
              "name": "result",
              "type": "bool"
            },
            {
              "internalType": "uint256[3]",
              "name": "results",
              "type": "uint256[3]"
            }
          ],
          "indexed": false,
          "internalType": "struct Vendor.Game",
          "name": "",
          "type": "tuple"
        }
      ],
      "name": "Spin",
      "type": "event"
    },
    {
      "stateMutability": "payable",
      "type": "fallback"
    },
    {
      "inputs": [],
      "name": "buyTokens",
      "outputs": [
        {
          "internalType": "uint256",
          "name": "tokenAmount",
          "type": "uint256"
        }
      ],
      "stateMutability": "payable",
      "type": "function"
    },
    {
      "inputs": [],
      "name": "getBalanceETH",
      "outputs": [
        {
          "internalType": "uint256",
          "name": "",
          "type": "uint256"
        }
      ],
      "stateMutability": "view",
      "type": "function"
    },
    {
      "inputs": [],
      "name": "getBalanceToken",
      "outputs": [
        {
          "internalType": "uint256",
          "name": "",
          "type": "uint256"
        }
      ],
      "stateMutability": "view",
      "type": "function"
    },
    {
      "inputs": [],
      "name": "getJackpotAmount",
      "outputs": [
        {
          "internalType": "uint256",
          "name": "",
          "type": "uint256"
        }
      ],
      "stateMutability": "view",
      "type": "function"
    },
    {
      "inputs": [],
      "name": "getUserGameResults",
      "outputs": [
        {
          "components": [
            {
              "internalType": "bool",
              "name": "result",
              "type": "bool"
            },
            {
              "internalType": "uint256[3]",
              "name": "results",
              "type": "uint256[3]"
            }
          ],
          "internalType": "struct Vendor.Game[]",
          "name": "",
          "type": "tuple[]"
        }
      ],
      "stateMutability": "view",
      "type": "function"
    },
    {
      "inputs": [],
      "name": "minEthBal",
      "outputs": [
        {
          "internalType": "uint256",
          "name": "",
          "type": "uint256"
        }
      ],
      "stateMutability": "view",
      "type": "function"
    },
    {
      "inputs": [],
      "name": "owner",
      "outputs": [
        {
          "internalType": "address",
          "name": "",
          "type": "address"
        }
      ],
      "stateMutability": "view",
      "type": "function"
    },
    {
      "inputs": [],
      "name": "renounceOwnership",
      "outputs": [],
      "stateMutability": "nonpayable",
      "type": "function"
    },
    {
      "inputs": [
        {
          "internalType": "uint256",
          "name": "amountOfTokens",
          "type": "uint256"
        }
      ],
      "name": "spin",
      "outputs": [],
      "stateMutability": "nonpayable",
      "type": "function"
    },
    {
      "inputs": [],
      "name": "tokensPerEth",
      "outputs": [
        {
          "internalType": "uint256",
          "name": "",
          "type": "uint256"
        }
      ],
      "stateMutability": "view",
      "type": "function"
    },
    {
      "inputs": [
        {
          "internalType": "address",
          "name": "newOwner",
          "type": "address"
        }
      ],
      "name": "transferOwnership",
      "outputs": [],
      "stateMutability": "nonpayable",
      "type": "function"
    }
  ],
  "bytecode": "0x608060405260006001556064600455604051620020233803806200202383398181016040528101906200003391906200017e565b62000053620000476200009b60201b60201c565b620000a360201b60201c565b80600360006101000a81548173ffffffffffffffffffffffffffffffffffffffff021916908373ffffffffffffffffffffffffffffffffffffffff16021790555050620001f8565b600033905090565b60008060009054906101000a900473ffffffffffffffffffffffffffffffffffffffff169050816000806101000a81548173ffffffffffffffffffffffffffffffffffffffff021916908373ffffffffffffffffffffffffffffffffffffffff1602179055508173ffffffffffffffffffffffffffffffffffffffff168173ffffffffffffffffffffffffffffffffffffffff167f8be0079c531659141344cd1fd0a4f28419497f9722a3daafe3b4186f6b6457e060405160405180910390a35050565b6000815190506200017881620001de565b92915050565b6000602082840312156200019157600080fd5b6000620001a18482850162000167565b91505092915050565b6000620001b782620001be565b9050919050565b600073ffffffffffffffffffffffffffffffffffffffff82169050919050565b620001e981620001aa565b8114620001f557600080fd5b50565b611e1b80620002086000396000f3fe6080604052600436106100a05760003560e01c8063a5b6ea8f11610064578063a5b6ea8f1461019f578063acd1f254146101c8578063cbdd69b5146101f3578063d0febe4c1461021e578063ed8b65561461023c578063f2fde38b14610267576100a1565b80631425d2fa146100dc5780636719c73d14610107578063715018a6146101325780638da5cb5b14610149578063a40fe87d14610174576100a1565b5b7f88a5966d370b9919b20f3e2c13ff65706f196a4e32cc2c12bf57088f8852587433346040516100d292919061166e565b60405180910390a1005b3480156100e857600080fd5b506100f1610290565b6040516100fe919061186b565b60405180910390f35b34801561011357600080fd5b5061011c610342565b60405161012991906116ce565b60405180910390f35b34801561013e57600080fd5b5061014761043e565b005b34801561015557600080fd5b5061015e6104c6565b60405161016b91906115f3565b60405180910390f35b34801561018057600080fd5b506101896104ef565b604051610196919061186b565b60405180910390f35b3480156101ab57600080fd5b506101c660048036038101906101c1919061120b565b6104fa565b005b3480156101d457600080fd5b506101dd610a22565b6040516101ea919061186b565b60405180910390f35b3480156101ff57600080fd5b50610208610a2a565b604051610215919061186b565b60405180910390f35b610226610a30565b604051610233919061186b565b60405180910390f35b34801561024857600080fd5b50610251610caf565b60405161025e919061186b565b60405180910390f35b34801561027357600080fd5b5061028e600480360381019061028991906111b9565b610d20565b005b6000600360009054906101000a900473ffffffffffffffffffffffffffffffffffffffff1673ffffffffffffffffffffffffffffffffffffffff166370a08231306040518263ffffffff1660e01b81526004016102ed91906115f3565b60206040518083038186803b15801561030557600080fd5b505afa158015610319573d6000803e3d6000fd5b505050506040513d601f19601f8201168201806040525081019061033d9190611234565b905090565b6060600260003373ffffffffffffffffffffffffffffffffffffffff1673ffffffffffffffffffffffffffffffffffffffff168152602001908152602001600020805480602002602001604051908101604052809291908181526020016000905b8282101561043557838290600052602060002090600402016040518060400160405290816000820160009054906101000a900460ff161515151581526020016001820160038060200260405190810160405280929190826003801561041d576020028201915b815481526020019060010190808311610409575b505050505081525050815260200190600101906103a3565b50505050905090565b610446610e18565b73ffffffffffffffffffffffffffffffffffffffff166104646104c6565b73ffffffffffffffffffffffffffffffffffffffff16146104ba576040517f08c379a00000000000000000000000000000000000000000000000000000000081526004016104b1906117f0565b60405180910390fd5b6104c46000610e20565b565b60008060009054906101000a900473ffffffffffffffffffffffffffffffffffffffff16905090565b662386f26fc1000081565b662386f26fc1000061050a610a22565b1161054a576040517f08c379a000000000000000000000000000000000000000000000000000000000815260040161054190611770565b60405180910390fd5b6000600360009054906101000a900473ffffffffffffffffffffffffffffffffffffffff1673ffffffffffffffffffffffffffffffffffffffff166370a08231336040518263ffffffff1660e01b81526004016105a791906115f3565b60206040518083038186803b1580156105bf57600080fd5b505afa1580156105d3573d6000803e3d6000fd5b505050506040513d601f19601f820116820180604052508101906105f79190611234565b90508181101561063c576040517f08c379a000000000000000000000000000000000000000000000000000000000815260040161063390611810565b60405180910390fd5b8160011115610680576040517f08c379a000000000000000000000000000000000000000000000000000000000815260040161067790611710565b60405180910390fd5b6000600360009054906101000a900473ffffffffffffffffffffffffffffffffffffffff1673ffffffffffffffffffffffffffffffffffffffff1663dd62ed3e33306040518363ffffffff1660e01b81526004016106df92919061160e565b60206040518083038186803b1580156106f757600080fd5b505afa15801561070b573d6000803e3d6000fd5b505050506040513d601f19601f8201168201806040525081019061072f9190611234565b905082811015610774576040517f08c379a000000000000000000000000000000000000000000000000000000000815260040161076b90611790565b60405180910390fd5b6000600360009054906101000a900473ffffffffffffffffffffffffffffffffffffffff1673ffffffffffffffffffffffffffffffffffffffff166323b872dd3330876040518463ffffffff1660e01b81526004016107d593929190611637565b602060405180830381600087803b1580156107ef57600080fd5b505af1158015610803573d6000803e3d6000fd5b505050506040513d601f19601f8201168201806040525081019061082791906111e2565b905080610869576040517f08c379a000000000000000000000000000000000000000000000000000000000815260040161086090611750565b60405180910390fd5b60005b84811015610a1b5760006040518060600160405280610889610ee4565b8152602001610896610ee4565b81526020016108a3610ee4565b815250905060006108b382610fea565b9050600060405180604001604052808315158152602001848152509050811561092b5760006108e0610caf565b90503373ffffffffffffffffffffffffffffffffffffffff166108fc829081150290604051600060405180830381858888f19350505050158015610928573d6000803e3d6000fd5b50505b600260003373ffffffffffffffffffffffffffffffffffffffff1673ffffffffffffffffffffffffffffffffffffffff16815260200190815260200160002081908060018154018082558091505060019003906000526020600020906004020160009091909190915060008201518160000160006101000a81548160ff0219169083151502179055506020820151816001019060036109cb929190611108565b5050507fb369dbada696e78e379e4f50b5691a7933398bdd581c6e5b86c55f2b2c38d68a816040516109fd9190611850565b60405180910390a15050508080610a1390611a6c565b91505061086c565b5050505050565b600047905090565b60045481565b6000803411610a74576040517f08c379a0000000000000000000000000000000000000000000000000000000008152600401610a6b906117b0565b60405180910390fd5b600060045434610a849190611984565b90506000600360009054906101000a900473ffffffffffffffffffffffffffffffffffffffff1673ffffffffffffffffffffffffffffffffffffffff166370a08231306040518263ffffffff1660e01b8152600401610ae391906115f3565b60206040518083038186803b158015610afb57600080fd5b505afa158015610b0f573d6000803e3d6000fd5b505050506040513d601f19601f82011682018060405250810190610b339190611234565b905081811015610b78576040517f08c379a0000000000000000000000000000000000000000000000000000000008152600401610b6f90611830565b60405180910390fd5b6000600360009054906101000a900473ffffffffffffffffffffffffffffffffffffffff1673ffffffffffffffffffffffffffffffffffffffff1663a9059cbb33856040518363ffffffff1660e01b8152600401610bd792919061166e565b602060405180830381600087803b158015610bf157600080fd5b505af1158015610c05573d6000803e3d6000fd5b505050506040513d601f19601f82011682018060405250810190610c2991906111e2565b905080610c6b576040517f08c379a0000000000000000000000000000000000000000000000000000000008152600401610c62906117d0565b60405180910390fd5b7f0a37b72bb67eee30e09084cf386f8a17817c57f620c3ab95fb25d6a20356ec77333485604051610c9e93929190611697565b60405180910390a182935050505090565b6000662386f26fc10000610cc1610a22565b11610d01576040517f08c379a0000000000000000000000000000000000000000000000000000000008152600401610cf8906116f0565b60405180910390fd5b662386f26fc10000610d11610a22565b610d1b91906119de565b905090565b610d28610e18565b73ffffffffffffffffffffffffffffffffffffffff16610d466104c6565b73ffffffffffffffffffffffffffffffffffffffff1614610d9c576040517f08c379a0000000000000000000000000000000000000000000000000000000008152600401610d93906117f0565b60405180910390fd5b600073ffffffffffffffffffffffffffffffffffffffff168173ffffffffffffffffffffffffffffffffffffffff161415610e0c576040517f08c379a0000000000000000000000000000000000000000000000000000000008152600401610e0390611730565b60405180910390fd5b610e1581610e20565b50565b600033905090565b60008060009054906101000a900473ffffffffffffffffffffffffffffffffffffffff169050816000806101000a81548173ffffffffffffffffffffffffffffffffffffffff021916908373ffffffffffffffffffffffffffffffffffffffff1602179055508173ffffffffffffffffffffffffffffffffffffffff168173ffffffffffffffffffffffffffffffffffffffff167f8be0079c531659141344cd1fd0a4f28419497f9722a3daafe3b4186f6b6457e060405160405180910390a35050565b600080600a434233604051602001610efc91906115a2565b6040516020818303038152906040528051906020012060001c610f1f9190611953565b454241604051602001610f3291906115bd565b6040516020818303038152906040528051906020012060001c610f559190611953565b6001544442610f6491906118fd565b610f6e91906118fd565b610f7891906118fd565b610f8291906118fd565b610f8c91906118fd565b610f9691906118fd565b604051602001610fa691906115d8565b6040516020818303038152906040528051906020012060001c610fc99190611af5565b905060016000815480929190610fde90611a6c565b91905055508091505090565b600081600160038110611026577f4e487b7100000000000000000000000000000000000000000000000000000000600052603260045260246000fd5b602002015182600060038110611065577f4e487b7100000000000000000000000000000000000000000000000000000000600052603260045260246000fd5b602002015114156110fe57816002600381106110aa577f4e487b7100000000000000000000000000000000000000000000000000000000600052603260045260246000fd5b6020020151826000600381106110e9577f4e487b7100000000000000000000000000000000000000000000000000000000600052603260045260246000fd5b602002015114156110fd5760019050611103565b5b600090505b919050565b8260038101928215611137579160200282015b8281111561113657825182559160200191906001019061111b565b5b5090506111449190611148565b5090565b5b80821115611161576000816000905550600101611149565b5090565b60008135905061117481611da0565b92915050565b60008151905061118981611db7565b92915050565b60008135905061119e81611dce565b92915050565b6000815190506111b381611dce565b92915050565b6000602082840312156111cb57600080fd5b60006111d984828501611165565b91505092915050565b6000602082840312156111f457600080fd5b60006112028482850161117a565b91505092915050565b60006020828403121561121d57600080fd5b600061122b8482850161118f565b91505092915050565b60006020828403121561124657600080fd5b6000611254848285016111a4565b91505092915050565b6000611269838361150f565b60808301905092915050565b6000611281838361156d565b60208301905092915050565b61129e61129982611a24565b611ac7565b82525050565b6112ad81611a12565b82525050565b6112c46112bf82611a12565b611ab5565b82525050565b60006112d5826118a0565b6112df81856118d0565b93506112ea83611886565b8060005b8381101561131b578151611302888261125d565b975061130d836118b6565b9250506001810190506112ee565b5085935050505092915050565b611331816118ab565b61133b81846118e1565b925061134682611896565b8060005b8381101561137757815161135e8782611275565b9650611369836118c3565b92505060018101905061134a565b505050505050565b61138881611a36565b82525050565b600061139b6017836118ec565b91506113a682611b91565b602082019050919050565b60006113be601f836118ec565b91506113c982611bba565b602082019050919050565b60006113e16026836118ec565b91506113ec82611be3565b604082019050919050565b60006114046019836118ec565b915061140f82611c32565b602082019050919050565b60006114276017836118ec565b915061143282611c5b565b602082019050919050565b600061144a6019836118ec565b915061145582611c84565b602082019050919050565b600061146d6028836118ec565b915061147882611cad565b604082019050919050565b60006114906015836118ec565b915061149b82611cfc565b602082019050919050565b60006114b36020836118ec565b91506114be82611d25565b602082019050919050565b60006114d6601c836118ec565b91506114e182611d4e565b602082019050919050565b60006114f96011836118ec565b915061150482611d77565b602082019050919050565b608082016000820151611525600085018261137f565b5060208201516115386020850182611328565b50505050565b608082016000820151611554600085018261137f565b5060208201516115676020850182611328565b50505050565b61157681611a62565b82525050565b61158581611a62565b82525050565b61159c61159782611a62565b611aeb565b82525050565b60006115ae82846112b3565b60148201915081905092915050565b60006115c9828461128d565b60148201915081905092915050565b60006115e4828461158b565b60208201915081905092915050565b600060208201905061160860008301846112a4565b92915050565b600060408201905061162360008301856112a4565b61163060208301846112a4565b9392505050565b600060608201905061164c60008301866112a4565b61165960208301856112a4565b611666604083018461157c565b949350505050565b600060408201905061168360008301856112a4565b611690602083018461157c565b9392505050565b60006060820190506116ac60008301866112a4565b6116b9602083018561157c565b6116c6604083018461157c565b949350505050565b600060208201905081810360008301526116e881846112ca565b905092915050565b600060208201905081810360008301526117098161138e565b9050919050565b60006020820190508181036000830152611729816113b1565b9050919050565b60006020820190508181036000830152611749816113d4565b9050919050565b60006020820190508181036000830152611769816113f7565b9050919050565b600060208201905081810360008301526117898161141a565b9050919050565b600060208201905081810360008301526117a98161143d565b9050919050565b600060208201905081810360008301526117c981611460565b9050919050565b600060208201905081810360008301526117e981611483565b9050919050565b60006020820190508181036000830152611809816114a6565b9050919050565b60006020820190508181036000830152611829816114c9565b9050919050565b60006020820190508181036000830152611849816114ec565b9050919050565b6000608082019050611865600083018461153e565b92915050565b6000602082019050611880600083018461157c565b92915050565b6000819050602082019050919050565b6000819050919050565b600081519050919050565b600060039050919050565b6000602082019050919050565b6000602082019050919050565b600082825260208201905092915050565b600081905092915050565b600082825260208201905092915050565b600061190882611a62565b915061191383611a62565b9250827fffffffffffffffffffffffffffffffffffffffffffffffffffffffffffffffff0382111561194857611947611b26565b5b828201905092915050565b600061195e82611a62565b915061196983611a62565b92508261197957611978611b55565b5b828204905092915050565b600061198f82611a62565b915061199a83611a62565b9250817fffffffffffffffffffffffffffffffffffffffffffffffffffffffffffffffff04831182151516156119d3576119d2611b26565b5b828202905092915050565b60006119e982611a62565b91506119f483611a62565b925082821015611a0757611a06611b26565b5b828203905092915050565b6000611a1d82611a42565b9050919050565b6000611a2f82611a42565b9050919050565b60008115159050919050565b600073ffffffffffffffffffffffffffffffffffffffff82169050919050565b6000819050919050565b6000611a7782611a62565b91507fffffffffffffffffffffffffffffffffffffffffffffffffffffffffffffffff821415611aaa57611aa9611b26565b5b600182019050919050565b6000611ac082611ad9565b9050919050565b6000611ad282611ad9565b9050919050565b6000611ae482611b84565b9050919050565b6000819050919050565b6000611b0082611a62565b9150611b0b83611a62565b925082611b1b57611b1a611b55565b5b828206905092915050565b7f4e487b7100000000000000000000000000000000000000000000000000000000600052601160045260246000fd5b7f4e487b7100000000000000000000000000000000000000000000000000000000600052601260045260246000fd5b60008160601b9050919050565b7f5468657265206973206e6f2045544820746f2077696e21000000000000000000600082015250565b7f426574206d7573742045786365656420546865204d696e696d756d2042657400600082015250565b7f4f776e61626c653a206e6577206f776e657220697320746865207a65726f206160008201527f6464726573730000000000000000000000000000000000000000000000000000602082015250565b7f436f756c64206e6f74205472616e7366657220746f6b656e7300000000000000600082015250565b7f54686572652773206e6f7468696e6720746f2077696e21000000000000000000600082015250565b7f436865636b2074686520746f6b656e20616c6c6f77616e636500000000000000600082015250565b7f53656e64206174206c65617374202e30312045544820746f2062757920736f6d60008201527f6520746f6b656e73000000000000000000000000000000000000000000000000602082015250565b7f436f756c64206e6f742073656e6420746f6b656e730000000000000000000000600082015250565b7f4f776e61626c653a2063616c6c6572206973206e6f7420746865206f776e6572600082015250565b7f596f7520446f6e2774204861766520456e6f75676820546f6b656e7300000000600082015250565b7f52616e206f7574206f6620746f6b656e73000000000000000000000000000000600082015250565b611da981611a12565b8114611db457600080fd5b50565b611dc081611a36565b8114611dcb57600080fd5b50565b611dd781611a62565b8114611de257600080fd5b5056fea2646970667358221220d09840355364e9fe34fc64f4829af03a7e9ba804da84a48ae44e8b69a63c9b7f64736f6c63430008040033",
  "linkReferences": {},
  "deployedLinkReferences": {}
}